{
  "contractName": "Election",
  "abi": [
    {
      "constant": true,
      "inputs": [],
      "name": "candidatesCount",
      "outputs": [
        {
          "name": "",
          "type": "uint256"
        }
      ],
      "payable": false,
      "stateMutability": "view",
      "type": "function"
    },
    {
      "constant": true,
      "inputs": [
        {
          "name": "",
          "type": "uint256"
        }
      ],
      "name": "candidateAddress",
      "outputs": [
        {
          "name": "",
          "type": "address"
        }
      ],
      "payable": false,
      "stateMutability": "view",
      "type": "function"
    },
    {
      "constant": true,
      "inputs": [
        {
          "name": "",
          "type": "address"
        }
      ],
      "name": "candidates",
      "outputs": [
        {
          "name": "id",
          "type": "address"
        },
        {
          "name": "name",
          "type": "string"
        },
        {
          "name": "voteCount",
          "type": "uint256"
        }
      ],
      "payable": false,
      "stateMutability": "view",
      "type": "function"
    },
    {
      "constant": true,
      "inputs": [
        {
          "name": "",
          "type": "address"
        }
      ],
      "name": "voters",
      "outputs": [
        {
          "name": "",
          "type": "bool"
        }
      ],
      "payable": false,
      "stateMutability": "view",
      "type": "function"
    },
    {
      "inputs": [],
      "payable": false,
      "stateMutability": "nonpayable",
      "type": "constructor"
    },
    {
      "anonymous": false,
      "inputs": [
        {
          "indexed": true,
          "name": "_candidateAddress",
          "type": "address"
        },
        {
          "indexed": false,
          "name": "_name",
          "type": "string"
        }
      ],
      "name": "votedEvent",
      "type": "event"
    },
    {
      "anonymous": false,
      "inputs": [
        {
          "indexed": false,
          "name": "_name",
          "type": "string"
        },
        {
          "indexed": false,
          "name": "_voteCount",
          "type": "uint256"
        }
      ],
      "name": "winnerEvent",
      "type": "event"
    },
    {
      "constant": false,
      "inputs": [
        {
          "name": "_name",
          "type": "string"
        }
      ],
      "name": "becomeCandidate",
      "outputs": [],
      "payable": true,
      "stateMutability": "payable",
      "type": "function"
    },
    {
      "constant": false,
      "inputs": [
        {
          "name": "_candidateAddress",
          "type": "address"
        }
      ],
      "name": "vote",
      "outputs": [],
      "payable": false,
      "stateMutability": "nonpayable",
      "type": "function"
    },
    {
      "constant": false,
      "inputs": [],
      "name": "finish",
      "outputs": [],
      "payable": false,
      "stateMutability": "nonpayable",
      "type": "function"
    }
  ],
  "bytecode": "0x608060405234801561001057600080fd5b50336000806101000a81548173ffffffffffffffffffffffffffffffffffffffff021916908373ffffffffffffffffffffffffffffffffffffffff160217905550610ca9806100606000396000f300608060405260043610610083576000357c0100000000000000000000000000000000000000000000000000000000900463ffffffff1680632d35a8a2146100885780633a88251a146100b357806346f53571146101205780636dd7d8ea1461017c5780638ab66a90146101bf578063a3ec138d146102b5578063d56b288914610310575b600080fd5b34801561009457600080fd5b5061009d610327565b6040518082815260200191505060405180910390f35b3480156100bf57600080fd5b506100de6004803603810190808035906020019092919050505061032d565b604051808273ffffffffffffffffffffffffffffffffffffffff1673ffffffffffffffffffffffffffffffffffffffff16815260200191505060405180910390f35b61017a600480360381019080803590602001908201803590602001908080601f0160208091040260200160405190810160405280939291908181526020018383808284378201915050505050509192919290505050610360565b005b34801561018857600080fd5b506101bd600480360381019080803573ffffffffffffffffffffffffffffffffffffffff16906020019092919050505061055f565b005b3480156101cb57600080fd5b50610200600480360381019080803573ffffffffffffffffffffffffffffffffffffffff169060200190929190505050610815565b604051808473ffffffffffffffffffffffffffffffffffffffff1673ffffffffffffffffffffffffffffffffffffffff16815260200180602001838152602001828103825284818151815260200191508051906020019080838360005b8381101561027857808201518184015260208101905061025d565b50505050905090810190601f1680156102a55780820380516001836020036101000a031916815260200191505b5094505050505060405180910390f35b3480156102c157600080fd5b506102f6600480360381019080803573ffffffffffffffffffffffffffffffffffffffff1690602001909291905050506108f7565b604051808215151515815260200191505060405180910390f35b34801561031c57600080fd5b50610325610917565b005b60045481565b60036020528060005260406000206000915054906101000a900473ffffffffffffffffffffffffffffffffffffffff1681565b600073ffffffffffffffffffffffffffffffffffffffff16600260003373ffffffffffffffffffffffffffffffffffffffff1673ffffffffffffffffffffffffffffffffffffffff16815260200190815260200160002060000160009054906101000a900473ffffffffffffffffffffffffffffffffffffffff1673ffffffffffffffffffffffffffffffffffffffff161415156103fd57600080fd5b6706f05b59d3b200003414151561041357600080fd5b3360036000600454815260200190815260200160002060006101000a81548173ffffffffffffffffffffffffffffffffffffffff021916908373ffffffffffffffffffffffffffffffffffffffff1602179055506060604051908101604052803373ffffffffffffffffffffffffffffffffffffffff1681526020018281526020016000815250600260003373ffffffffffffffffffffffffffffffffffffffff1673ffffffffffffffffffffffffffffffffffffffff16815260200190815260200160002060008201518160000160006101000a81548173ffffffffffffffffffffffffffffffffffffffff021916908373ffffffffffffffffffffffffffffffffffffffff160217905550602082015181600101908051906020019061053c929190610bd8565b506040820151816002015590505060046000815480929190600101919050555050565b600160003373ffffffffffffffffffffffffffffffffffffffff1673ffffffffffffffffffffffffffffffffffffffff16815260200190815260200160002060009054906101000a900460ff161515156105b857600080fd5b80600073ffffffffffffffffffffffffffffffffffffffff16600260008373ffffffffffffffffffffffffffffffffffffffff1673ffffffffffffffffffffffffffffffffffffffff16815260200190815260200160002060000160009054906101000a900473ffffffffffffffffffffffffffffffffffffffff1673ffffffffffffffffffffffffffffffffffffffff161415151561065757600080fd5b60018060003373ffffffffffffffffffffffffffffffffffffffff1673ffffffffffffffffffffffffffffffffffffffff16815260200190815260200160002060006101000a81548160ff021916908315150217905550600260008373ffffffffffffffffffffffffffffffffffffffff1673ffffffffffffffffffffffffffffffffffffffff168152602001908152602001600020600201600081548092919060010191905055508173ffffffffffffffffffffffffffffffffffffffff167f4dd1c1c07cbda61de9ccb3a4970c5b3e33b6e6e7c4950c0592d30a81d63721e8600260008573ffffffffffffffffffffffffffffffffffffffff1673ffffffffffffffffffffffffffffffffffffffff16815260200190815260200160002060010160405180806020018281038252838181546001816001161561010002031660029004815260200191508054600181600116156101000203166002900480156108035780601f106107d857610100808354040283529160200191610803565b820191906000526020600020905b8154815290600101906020018083116107e657829003601f168201915b50509250505060405180910390a25050565b60026020528060005260406000206000915090508060000160009054906101000a900473ffffffffffffffffffffffffffffffffffffffff1690806001018054600181600116156101000203166002900480601f0160208091040260200160405190810160405280929190818152602001828054600181600116156101000203166002900480156108e75780601f106108bc576101008083540402835291602001916108e7565b820191906000526020600020905b8154815290600101906020018083116108ca57829003601f168201915b5050505050908060020154905083565b60016020528060005260406000206000915054906101000a900460ff1681565b606060008060008060008060009054906101000a900473ffffffffffffffffffffffffffffffffffffffff1673ffffffffffffffffffffffffffffffffffffffff163373ffffffffffffffffffffffffffffffffffffffff1614151561097c57600080fd5b602060405190810160405280600081525095506000945060009350600092505b600454831015610add576003600084815260200190815260200160002060009054906101000a900473ffffffffffffffffffffffffffffffffffffffff169150600260008373ffffffffffffffffffffffffffffffffffffffff1673ffffffffffffffffffffffffffffffffffffffff16815260200190815260200160002090508481600201541115610ad05780600201549450806001018054600181600116156101000203166002900480601f016020809104026020016040519081016040528092919081815260200182805460018160011615610100020316600290048015610ac85780601f10610a9d57610100808354040283529160200191610ac8565b820191906000526020600020905b815481529060010190602001808311610aab57829003601f168201915b505050505095505b828060010193505061099c565b8373ffffffffffffffffffffffffffffffffffffffff166108fc6706f05b59d3b200009081150290604051600060405180830381858888f19350505050158015610b2b573d6000803e3d6000fd5b507f636e245a5f366a30f10e7e737d21e24caa88407ad6b4f215dbf9f73e32bd593486866040518080602001838152602001828103825284818151815260200191508051906020019080838360005b83811015610b95578082015181840152602081019050610b7a565b50505050905090810190601f168015610bc25780820380516001836020036101000a031916815260200191505b50935050505060405180910390a1505050505050565b828054600181600116156101000203166002900490600052602060002090601f016020900481019282601f10610c1957805160ff1916838001178555610c47565b82800160010185558215610c47579182015b82811115610c46578251825591602001919060010190610c2b565b5b509050610c549190610c58565b5090565b610c7a91905b80821115610c76576000816000905550600101610c5e565b5090565b905600a165627a7a72305820e4f89dd0da7edb46fbc0232bb3286f149815bdf1cb11fffeefa4e1bddb3935a80029",
  "source": "pragma solidity ^0.4.20;\r\n\r\ncontract Election {\r\n    //Aday modeli\r\n    struct Candidate {\r\n        address id;\r\n        string name;\r\n        uint voteCount;\r\n    }\r\n\r\n    //Kontrat sahibinin adresi\r\n    address owner;\r\n\r\n    //Seçmenler\r\n    mapping(address => bool) public voters;\r\n\r\n    //Adaylar\r\n    mapping(address => Candidate) public candidates;\r\n    mapping(uint => address) public candidateAddress;\r\n    \r\n    //Aday sayısı\r\n    uint public candidatesCount;\r\n\r\n    //Oy kullanıldığında tetiklenir\r\n    event votedEvent(\r\n        address indexed _candidateAddress,\r\n        string _name\r\n    );\r\n\r\n    //Kazanan belli olduğunda tetiklenir\r\n    event winnerEvent(\r\n        string _name,\r\n        uint _voteCount\r\n    );\r\n\r\n    //Kontrat sahibinin olması zorunlu\r\n    modifier onlyOwner(){\r\n        require(msg.sender == owner);\r\n        _;\r\n    }\r\n\r\n    //Seçmenin bir kez oy kullanabilmesi kontrolü\r\n    modifier onlyFirstVote() {\r\n        require(!voters[msg.sender]);\r\n        _;\r\n    }\r\n\r\n    //Adayın bir kez aday olabilmesi kontrolü\r\n    modifier onlyFirstCanditate(){\r\n        require(candidates[msg.sender].id == address(0));\r\n        _;\r\n    }\r\n\r\n    //Kullanılacak oy için aday kontrolü\r\n    modifier validCanditate(address _candidateAddress){\r\n        require(candidates[_candidateAddress].id != address(0));\r\n        _;\r\n    }\r\n\r\n    constructor() public { \r\n        owner = msg.sender;\r\n    }\r\n\r\n    function becomeCandidate(string _name) public payable onlyFirstCanditate {\r\n\r\n        require(msg.value == 500000000000000000);\r\n\r\n        candidateAddress[candidatesCount] = msg.sender;\r\n        candidates[msg.sender] = Candidate(msg.sender, _name, 0);\r\n\r\n        candidatesCount++;\r\n    }\r\n\r\n    function vote(address _candidateAddress) public onlyFirstVote validCanditate(_candidateAddress) {\r\n        voters[msg.sender] = true;\r\n\r\n        candidates[_candidateAddress].voteCount ++;\r\n\r\n        emit votedEvent(_candidateAddress, candidates[_candidateAddress].name);\r\n    }\r\n\r\n    function finish() public onlyOwner {\r\n        \r\n        string memory winnerName = \"\";\r\n        uint winnerVoteCount = 0;\r\n        address winnerAddress = address(0);\r\n\r\n        for (uint i = 0; i < candidatesCount; i++) {\r\n            address addr = candidateAddress[i];\r\n            Candidate storage candidate = candidates[addr];\r\n\r\n            if(candidate.voteCount > winnerVoteCount) {\r\n                winnerVoteCount = candidate.voteCount;\r\n                winnerName = candidate.name;\r\n            }\r\n        }\r\n\r\n        winnerAddress.transfer(500000000000000000);\r\n\r\n        emit winnerEvent(winnerName, winnerVoteCount);\r\n    }\r\n}",
  "sourcePath": "C:\\Projects\\dapp-election\\contracts\\Election.sol",
  "compiler": {
    "name": "solc",
    "version": "0.4.24+commit.e67f0147.Emscripten.clang"
  },
  "schemaVersion": "2.0.0",
  "updatedAt": "2018-06-13T20:49:24.620Z"
}