{
  "contractName": "Election",
  "abi": [
    {
      "constant": true,
      "inputs": [],
      "name": "candidatesCount",
      "outputs": [
        {
          "name": "",
          "type": "uint256"
        }
      ],
      "payable": false,
      "stateMutability": "view",
      "type": "function"
    },
    {
      "constant": true,
      "inputs": [
        {
          "name": "",
          "type": "uint256"
        }
      ],
      "name": "candidateAddress",
      "outputs": [
        {
          "name": "",
          "type": "address"
        }
      ],
      "payable": false,
      "stateMutability": "view",
      "type": "function"
    },
    {
      "constant": true,
      "inputs": [],
      "name": "isFinished",
      "outputs": [
        {
          "name": "",
          "type": "bool"
        }
      ],
      "payable": false,
      "stateMutability": "view",
      "type": "function"
    },
    {
      "constant": true,
      "inputs": [
        {
          "name": "",
          "type": "address"
        }
      ],
      "name": "candidates",
      "outputs": [
        {
          "name": "id",
          "type": "address"
        },
        {
          "name": "name",
          "type": "string"
        },
        {
          "name": "photoHash",
          "type": "string"
        },
        {
          "name": "voteCount",
          "type": "uint256"
        }
      ],
      "payable": false,
      "stateMutability": "view",
      "type": "function"
    },
    {
      "constant": true,
      "inputs": [],
      "name": "owner",
      "outputs": [
        {
          "name": "",
          "type": "address"
        }
      ],
      "payable": false,
      "stateMutability": "view",
      "type": "function"
    },
    {
      "constant": true,
      "inputs": [],
      "name": "winnerCandidate",
      "outputs": [
        {
          "name": "",
          "type": "address"
        }
      ],
      "payable": false,
      "stateMutability": "view",
      "type": "function"
    },
    {
      "constant": true,
      "inputs": [
        {
          "name": "",
          "type": "address"
        }
      ],
      "name": "voters",
      "outputs": [
        {
          "name": "",
          "type": "bool"
        }
      ],
      "payable": false,
      "stateMutability": "view",
      "type": "function"
    },
    {
      "inputs": [],
      "payable": false,
      "stateMutability": "nonpayable",
      "type": "constructor"
    },
    {
      "anonymous": false,
      "inputs": [
        {
          "indexed": true,
          "name": "_candidateId",
          "type": "address"
        },
        {
          "indexed": false,
          "name": "_candidateName",
          "type": "string"
        },
        {
          "indexed": false,
          "name": "_candidateVoteCount",
          "type": "uint256"
        },
        {
          "indexed": false,
          "name": "_woterId",
          "type": "address"
        }
      ],
      "name": "votedEvent",
      "type": "event"
    },
    {
      "anonymous": false,
      "inputs": [
        {
          "indexed": true,
          "name": "_candidateId",
          "type": "address"
        },
        {
          "indexed": false,
          "name": "_candidateName",
          "type": "string"
        },
        {
          "indexed": false,
          "name": "_candidatePhotoHash",
          "type": "string"
        },
        {
          "indexed": false,
          "name": "_candidateVoteCount",
          "type": "uint256"
        }
      ],
      "name": "registeredCandidateEvent",
      "type": "event"
    },
    {
      "anonymous": false,
      "inputs": [
        {
          "indexed": true,
          "name": "_candidateId",
          "type": "address"
        },
        {
          "indexed": false,
          "name": "_candidateName",
          "type": "string"
        },
        {
          "indexed": false,
          "name": "_candidateVoteCount",
          "type": "uint256"
        }
      ],
      "name": "winnerEvent",
      "type": "event"
    },
    {
      "constant": false,
      "inputs": [
        {
          "name": "_name",
          "type": "string"
        },
        {
          "name": "_photoHash",
          "type": "string"
        }
      ],
      "name": "becomeCandidate",
      "outputs": [],
      "payable": true,
      "stateMutability": "payable",
      "type": "function"
    },
    {
      "constant": false,
      "inputs": [
        {
          "name": "_candidateAddress",
          "type": "address"
        }
      ],
      "name": "vote",
      "outputs": [],
      "payable": false,
      "stateMutability": "nonpayable",
      "type": "function"
    },
    {
      "constant": false,
      "inputs": [],
      "name": "finish",
      "outputs": [],
      "payable": false,
      "stateMutability": "nonpayable",
      "type": "function"
    }
  ],
  "bytecode": "0x608060405234801561001057600080fd5b50336000806101000a81548173ffffffffffffffffffffffffffffffffffffffff021916908373ffffffffffffffffffffffffffffffffffffffff16021790555061136a806100606000396000f3006080604052600436106100a4576000357c0100000000000000000000000000000000000000000000000000000000900463ffffffff1680632d35a8a2146100a95780633a88251a146100d45780636dd7d8ea146101415780637b352962146101845780638ab66a90146101b35780638da5cb5b14610315578063a0db857d1461036c578063a15148d11461040e578063a3ec138d14610465578063d56b2889146104c0575b600080fd5b3480156100b557600080fd5b506100be6104d7565b6040518082815260200191505060405180910390f35b3480156100e057600080fd5b506100ff600480360381019080803590602001909291905050506104dd565b604051808273ffffffffffffffffffffffffffffffffffffffff1673ffffffffffffffffffffffffffffffffffffffff16815260200191505060405180910390f35b34801561014d57600080fd5b50610182600480360381019080803573ffffffffffffffffffffffffffffffffffffffff169060200190929190505050610510565b005b34801561019057600080fd5b50610199610860565b604051808215151515815260200191505060405180910390f35b3480156101bf57600080fd5b506101f4600480360381019080803573ffffffffffffffffffffffffffffffffffffffff169060200190929190505050610873565b604051808573ffffffffffffffffffffffffffffffffffffffff1673ffffffffffffffffffffffffffffffffffffffff1681526020018060200180602001848152602001838103835286818151815260200191508051906020019080838360005b83811015610270578082015181840152602081019050610255565b50505050905090810190601f16801561029d5780820380516001836020036101000a031916815260200191505b50838103825285818151815260200191508051906020019080838360005b838110156102d65780820151818401526020810190506102bb565b50505050905090810190601f1680156103035780820380516001836020036101000a031916815260200191505b50965050505050505060405180910390f35b34801561032157600080fd5b5061032a6109f3565b604051808273ffffffffffffffffffffffffffffffffffffffff1673ffffffffffffffffffffffffffffffffffffffff16815260200191505060405180910390f35b61040c600480360381019080803590602001908201803590602001908080601f0160208091040260200160405190810160405280939291908181526020018383808284378201915050505050509192919290803590602001908201803590602001908080601f0160208091040260200160405190810160405280939291908181526020018383808284378201915050505050509192919290505050610a18565b005b34801561041a57600080fd5b50610423610d80565b604051808273ffffffffffffffffffffffffffffffffffffffff1673ffffffffffffffffffffffffffffffffffffffff16815260200191505060405180910390f35b34801561047157600080fd5b506104a6600480360381019080803573ffffffffffffffffffffffffffffffffffffffff169060200190929190505050610da6565b604051808215151515815260200191505060405180910390f35b3480156104cc57600080fd5b506104d5610dc6565b005b60045481565b60036020528060005260406000206000915054906101000a900473ffffffffffffffffffffffffffffffffffffffff1681565b600560009054906101000a900460ff1615151561052c57600080fd5b600160003373ffffffffffffffffffffffffffffffffffffffff1673ffffffffffffffffffffffffffffffffffffffff16815260200190815260200160002060009054906101000a900460ff1615151561058557600080fd5b80600073ffffffffffffffffffffffffffffffffffffffff16600260008373ffffffffffffffffffffffffffffffffffffffff1673ffffffffffffffffffffffffffffffffffffffff16815260200190815260200160002060000160009054906101000a900473ffffffffffffffffffffffffffffffffffffffff1673ffffffffffffffffffffffffffffffffffffffff161415151561062457600080fd5b60018060003373ffffffffffffffffffffffffffffffffffffffff1673ffffffffffffffffffffffffffffffffffffffff16815260200190815260200160002060006101000a81548160ff021916908315150217905550600260008373ffffffffffffffffffffffffffffffffffffffff1673ffffffffffffffffffffffffffffffffffffffff168152602001908152602001600020600301600081548092919060010191905055508173ffffffffffffffffffffffffffffffffffffffff167fdba61923b7cc0e66409c7a34a3a8800e40b0d4cd961b2ad2f9365510d52e8a58600260008573ffffffffffffffffffffffffffffffffffffffff1673ffffffffffffffffffffffffffffffffffffffff168152602001908152602001600020600101600260008673ffffffffffffffffffffffffffffffffffffffff1673ffffffffffffffffffffffffffffffffffffffff168152602001908152602001600020600301543360405180806020018481526020018373ffffffffffffffffffffffffffffffffffffffff1673ffffffffffffffffffffffffffffffffffffffff16815260200182810382528581815460018160011615610100020316600290048152602001915080546001816001161561010002031660029004801561084c5780601f106108215761010080835404028352916020019161084c565b820191906000526020600020905b81548152906001019060200180831161082f57829003601f168201915b505094505050505060405180910390a25050565b600560009054906101000a900460ff1681565b60026020528060005260406000206000915090508060000160009054906101000a900473ffffffffffffffffffffffffffffffffffffffff1690806001018054600181600116156101000203166002900480601f0160208091040260200160405190810160405280929190818152602001828054600181600116156101000203166002900480156109455780601f1061091a57610100808354040283529160200191610945565b820191906000526020600020905b81548152906001019060200180831161092857829003601f168201915b505050505090806002018054600181600116156101000203166002900480601f0160208091040260200160405190810160405280929190818152602001828054600181600116156101000203166002900480156109e35780601f106109b8576101008083540402835291602001916109e3565b820191906000526020600020905b8154815290600101906020018083116109c657829003601f168201915b5050505050908060030154905084565b6000809054906101000a900473ffffffffffffffffffffffffffffffffffffffff1681565b600560009054906101000a900460ff16151515610a3457600080fd5b600073ffffffffffffffffffffffffffffffffffffffff16600260003373ffffffffffffffffffffffffffffffffffffffff1673ffffffffffffffffffffffffffffffffffffffff16815260200190815260200160002060000160009054906101000a900473ffffffffffffffffffffffffffffffffffffffff1673ffffffffffffffffffffffffffffffffffffffff16141515610ad157600080fd5b670de0b6b3a764000034141515610ae757600080fd5b3360036000600454815260200190815260200160002060006101000a81548173ffffffffffffffffffffffffffffffffffffffff021916908373ffffffffffffffffffffffffffffffffffffffff1602179055506080604051908101604052803373ffffffffffffffffffffffffffffffffffffffff1681526020018381526020018281526020016000815250600260003373ffffffffffffffffffffffffffffffffffffffff1673ffffffffffffffffffffffffffffffffffffffff16815260200190815260200160002060008201518160000160006101000a81548173ffffffffffffffffffffffffffffffffffffffff021916908373ffffffffffffffffffffffffffffffffffffffff1602179055506020820151816001019080519060200190610c1692919061125a565b506040820151816002019080519060200190610c3392919061125a565b50606082015181600301559050506004600081548092919060010191905055503373ffffffffffffffffffffffffffffffffffffffff167fd0116b0484d88facf657b1f5af2d96a4d103501b10612a6b165f03637714da7e83836000604051808060200180602001848152602001838103835286818151815260200191508051906020019080838360005b83811015610cd9578082015181840152602081019050610cbe565b50505050905090810190601f168015610d065780820380516001836020036101000a031916815260200191505b50838103825285818151815260200191508051906020019080838360005b83811015610d3f578082015181840152602081019050610d24565b50505050905090810190601f168015610d6c5780820380516001836020036101000a031916815260200191505b509550505050505060405180910390a25050565b600560019054906101000a900473ffffffffffffffffffffffffffffffffffffffff1681565b60016020528060005260406000206000915054906101000a900460ff1681565b60606000806000610dd56112da565b6000809054906101000a900473ffffffffffffffffffffffffffffffffffffffff1673ffffffffffffffffffffffffffffffffffffffff163373ffffffffffffffffffffffffffffffffffffffff16141515610e3057600080fd5b6020604051908101604052806000815250945060009350600092505b6004548310156110ea576003600084815260200190815260200160002060009054906101000a900473ffffffffffffffffffffffffffffffffffffffff169150600260008373ffffffffffffffffffffffffffffffffffffffff1673ffffffffffffffffffffffffffffffffffffffff168152602001908152602001600020608060405190810160405290816000820160009054906101000a900473ffffffffffffffffffffffffffffffffffffffff1673ffffffffffffffffffffffffffffffffffffffff1673ffffffffffffffffffffffffffffffffffffffff168152602001600182018054600181600116156101000203166002900480601f016020809104026020016040519081016040528092919081815260200182805460018160011615610100020316600290048015610fc65780601f10610f9b57610100808354040283529160200191610fc6565b820191906000526020600020905b815481529060010190602001808311610fa957829003601f168201915b50505050508152602001600282018054600181600116156101000203166002900480601f0160208091040260200160405190810160405280929190818152602001828054600181600116156101000203166002900480156110685780601f1061103d57610100808354040283529160200191611068565b820191906000526020600020905b81548152906001019060200180831161104b57829003601f168201915b50505050508152602001600382015481525050905083816060015111156110dd5780606001519350806020015194508060000151600560016101000a81548173ffffffffffffffffffffffffffffffffffffffff021916908373ffffffffffffffffffffffffffffffffffffffff1602179055505b8280600101935050610e4c565b600560019054906101000a900473ffffffffffffffffffffffffffffffffffffffff1673ffffffffffffffffffffffffffffffffffffffff166108fc670de0b6b3a76400009081150290604051600060405180830381858888f1935050505015801561115a573d6000803e3d6000fd5b506001600560006101000a81548160ff021916908315150217905550600560019054906101000a900473ffffffffffffffffffffffffffffffffffffffff1673ffffffffffffffffffffffffffffffffffffffff167f4cd20412fd022c94191283a50366bf9b900700d9431b5b87ff12fcd867c2c76a86866040518080602001838152602001828103825284818151815260200191508051906020019080838360005b838110156112185780820151818401526020810190506111fd565b50505050905090810190601f1680156112455780820380516001836020036101000a031916815260200191505b50935050505060405180910390a25050505050565b828054600181600116156101000203166002900490600052602060002090601f016020900481019282601f1061129b57805160ff19168380011785556112c9565b828001600101855582156112c9579182015b828111156112c85782518255916020019190600101906112ad565b5b5090506112d69190611319565b5090565b608060405190810160405280600073ffffffffffffffffffffffffffffffffffffffff1681526020016060815260200160608152602001600081525090565b61133b91905b8082111561133757600081600090555060010161131f565b5090565b905600a165627a7a72305820ae1b1f107e63908ae07b5a16c53f96a378646e4d7a53832d0e7bf234fe2c38700029",
  "source": "pragma solidity ^0.4.20;\r\n\r\ncontract Election {\r\n    //Aday modeli\r\n    struct Candidate {\r\n        address id;\r\n        string name;\r\n        string photoHash;\r\n        uint voteCount;\r\n    }\r\n\r\n    //Kontrat sahibinin adresi\r\n    address public owner;\r\n\r\n    //Seçmenler\r\n    mapping(address => bool) public voters;\r\n\r\n    //Adaylar\r\n    mapping(address => Candidate) public candidates;\r\n    mapping(uint => address) public candidateAddress;\r\n    \r\n    //Aday sayısı\r\n    uint public candidatesCount;\r\n\r\n    //Seçim bitti\r\n    bool public isFinished;\r\n\r\n    //Seçimi kazanan adayın adresi\r\n    address public winnerCandidate;\r\n\r\n    //Oy kullanıldığında tetiklenir\r\n    event votedEvent(\r\n        address indexed _candidateId,\r\n        string _candidateName,\r\n        uint _candidateVoteCount,\r\n        address _woterId\r\n    );\r\n\r\n    //Aday olunduğunda tetiklenir\r\n    event registeredCandidateEvent(\r\n        address indexed _candidateId,\r\n        string _candidateName,\r\n        string _candidatePhotoHash,\r\n        uint _candidateVoteCount\r\n    );\r\n\r\n    //Kazanan belli olduğunda tetiklenir\r\n    event winnerEvent(\r\n        address indexed _candidateId,\r\n        string _candidateName,\r\n        uint _candidateVoteCount\r\n    );\r\n\r\n    //Kontrat sahibinin olması zorunlu\r\n    modifier onlyOwner(){\r\n        require(msg.sender == owner);\r\n        _;\r\n    }\r\n\r\n    //Seçmenin bir kez oy kullanabilmesi kontrolü\r\n    modifier onlyFirstVote() {\r\n        require(!voters[msg.sender]);\r\n        _;\r\n    }\r\n\r\n    //Adayın bir kez aday olabilmesi kontrolü\r\n    modifier onlyFirstCanditate(){\r\n        require(candidates[msg.sender].id == address(0));\r\n        _;\r\n    }\r\n\r\n    //Kullanılacak oy için aday kontrolü\r\n    modifier validCanditate(address _candidateAddress){\r\n        require(candidates[_candidateAddress].id != address(0));\r\n        _;\r\n    }\r\n\r\n    //Seçimin sona erip ermediği kontrolü\r\n    modifier validFinishElection(){\r\n        require(!isFinished);\r\n        _;\r\n    }\r\n\r\n    constructor() public { \r\n        owner = msg.sender;\r\n    }\r\n\r\n    function becomeCandidate(string _name, string _photoHash) public payable validFinishElection onlyFirstCanditate {\r\n        require(msg.value == 1000000000000000000);\r\n\r\n        candidateAddress[candidatesCount] = msg.sender;\r\n        candidates[msg.sender] = Candidate(msg.sender, _name, _photoHash, 0);\r\n\r\n        candidatesCount++;\r\n\r\n        emit registeredCandidateEvent(msg.sender, _name, _photoHash, 0);\r\n    }\r\n\r\n    function vote(address _candidateAddress) public validFinishElection onlyFirstVote validCanditate(_candidateAddress) {\r\n        voters[msg.sender] = true;\r\n\r\n        candidates[_candidateAddress].voteCount ++;\r\n\r\n        emit votedEvent(_candidateAddress, candidates[_candidateAddress].name, candidates[_candidateAddress].voteCount, msg.sender);\r\n    }\r\n\r\n    function finish() public onlyOwner {\r\n        string memory winnerName = \"\";\r\n        uint winnerVoteCount = 0;\r\n\r\n        for (uint i = 0; i < candidatesCount; i++) {\r\n            address addr = candidateAddress[i];\r\n            Candidate memory candidate = candidates[addr];\r\n\r\n            if(candidate.voteCount > winnerVoteCount) {\r\n                winnerVoteCount = candidate.voteCount;\r\n                winnerName = candidate.name;\r\n                winnerCandidate = candidate.id;\r\n            }\r\n        }\r\n\r\n        winnerCandidate.transfer(1000000000000000000);\r\n\r\n        isFinished = true;\r\n\r\n        emit winnerEvent(winnerCandidate, winnerName, winnerVoteCount);\r\n    }\r\n}",
  "sourcePath": "C:\\Sources\\election\\contracts\\Election.sol",
  "compiler": {
    "name": "solc",
    "version": "0.4.24+commit.e67f0147.Emscripten.clang"
  },
  "schemaVersion": "2.0.0",
  "updatedAt": "2018-06-20T14:15:44.605Z"
}