{
  "contractName": "Election",
  "abi": [
    {
      "constant": true,
      "inputs": [],
      "name": "candidatesCount",
      "outputs": [
        {
          "name": "",
          "type": "uint256"
        }
      ],
      "payable": false,
      "stateMutability": "view",
      "type": "function"
    },
    {
      "constant": true,
      "inputs": [
        {
          "name": "",
          "type": "uint256"
        }
      ],
      "name": "candidateAddress",
      "outputs": [
        {
          "name": "",
          "type": "address"
        }
      ],
      "payable": false,
      "stateMutability": "view",
      "type": "function"
    },
    {
      "constant": true,
      "inputs": [],
      "name": "isFinished",
      "outputs": [
        {
          "name": "",
          "type": "bool"
        }
      ],
      "payable": false,
      "stateMutability": "view",
      "type": "function"
    },
    {
      "constant": true,
      "inputs": [
        {
          "name": "",
          "type": "address"
        }
      ],
      "name": "candidates",
      "outputs": [
        {
          "name": "id",
          "type": "address"
        },
        {
          "name": "name",
          "type": "string"
        },
        {
          "name": "voteCount",
          "type": "uint256"
        }
      ],
      "payable": false,
      "stateMutability": "view",
      "type": "function"
    },
    {
      "constant": true,
      "inputs": [],
      "name": "owner",
      "outputs": [
        {
          "name": "",
          "type": "address"
        }
      ],
      "payable": false,
      "stateMutability": "view",
      "type": "function"
    },
    {
      "constant": true,
      "inputs": [],
      "name": "winnerCandidate",
      "outputs": [
        {
          "name": "",
          "type": "address"
        }
      ],
      "payable": false,
      "stateMutability": "view",
      "type": "function"
    },
    {
      "constant": true,
      "inputs": [
        {
          "name": "",
          "type": "address"
        }
      ],
      "name": "voters",
      "outputs": [
        {
          "name": "",
          "type": "bool"
        }
      ],
      "payable": false,
      "stateMutability": "view",
      "type": "function"
    },
    {
      "inputs": [],
      "payable": false,
      "stateMutability": "nonpayable",
      "type": "constructor"
    },
    {
      "anonymous": false,
      "inputs": [
        {
          "indexed": true,
          "name": "_candidateId",
          "type": "address"
        },
        {
          "indexed": false,
          "name": "_candidateName",
          "type": "string"
        },
        {
          "indexed": false,
          "name": "_candidateVoteCount",
          "type": "uint256"
        },
        {
          "indexed": false,
          "name": "_woterId",
          "type": "address"
        }
      ],
      "name": "votedEvent",
      "type": "event"
    },
    {
      "anonymous": false,
      "inputs": [
        {
          "indexed": true,
          "name": "_candidateId",
          "type": "address"
        },
        {
          "indexed": false,
          "name": "_candidateName",
          "type": "string"
        },
        {
          "indexed": false,
          "name": "_candidateVoteCount",
          "type": "uint256"
        }
      ],
      "name": "registeredCandidateEvent",
      "type": "event"
    },
    {
      "anonymous": false,
      "inputs": [
        {
          "indexed": true,
          "name": "_candidateId",
          "type": "address"
        },
        {
          "indexed": false,
          "name": "_candidateName",
          "type": "string"
        },
        {
          "indexed": false,
          "name": "_candidateVoteCount",
          "type": "uint256"
        }
      ],
      "name": "winnerEvent",
      "type": "event"
    },
    {
      "constant": false,
      "inputs": [
        {
          "name": "_name",
          "type": "string"
        }
      ],
      "name": "becomeCandidate",
      "outputs": [],
      "payable": true,
      "stateMutability": "payable",
      "type": "function"
    },
    {
      "constant": false,
      "inputs": [
        {
          "name": "_candidateAddress",
          "type": "address"
        }
      ],
      "name": "vote",
      "outputs": [],
      "payable": false,
      "stateMutability": "nonpayable",
      "type": "function"
    },
    {
      "constant": false,
      "inputs": [],
      "name": "finish",
      "outputs": [],
      "payable": false,
      "stateMutability": "nonpayable",
      "type": "function"
    }
  ],
  "bytecode": "0x608060405234801561001057600080fd5b50336000806101000a81548173ffffffffffffffffffffffffffffffffffffffff021916908373ffffffffffffffffffffffffffffffffffffffff16021790555061104b806100606000396000f3006080604052600436106100a4576000357c0100000000000000000000000000000000000000000000000000000000900463ffffffff1680632d35a8a2146100a95780633a88251a146100d457806346f53571146101415780636dd7d8ea1461019d5780637b352962146101e05780638ab66a901461020f5780638da5cb5b14610305578063a15148d11461035c578063a3ec138d146103b3578063d56b28891461040e575b600080fd5b3480156100b557600080fd5b506100be610425565b6040518082815260200191505060405180910390f35b3480156100e057600080fd5b506100ff6004803603810190808035906020019092919050505061042b565b604051808273ffffffffffffffffffffffffffffffffffffffff1673ffffffffffffffffffffffffffffffffffffffff16815260200191505060405180910390f35b61019b600480360381019080803590602001908201803590602001908080601f016020809104026020016040519081016040528093929190818152602001838380828437820191505050505050919291929050505061045e565b005b3480156101a957600080fd5b506101de600480360381019080803573ffffffffffffffffffffffffffffffffffffffff169060200190929190505050610735565b005b3480156101ec57600080fd5b506101f5610a85565b604051808215151515815260200191505060405180910390f35b34801561021b57600080fd5b50610250600480360381019080803573ffffffffffffffffffffffffffffffffffffffff169060200190929190505050610a98565b604051808473ffffffffffffffffffffffffffffffffffffffff1673ffffffffffffffffffffffffffffffffffffffff16815260200180602001838152602001828103825284818151815260200191508051906020019080838360005b838110156102c85780820151818401526020810190506102ad565b50505050905090810190601f1680156102f55780820380516001836020036101000a031916815260200191505b5094505050505060405180910390f35b34801561031157600080fd5b5061031a610b7a565b604051808273ffffffffffffffffffffffffffffffffffffffff1673ffffffffffffffffffffffffffffffffffffffff16815260200191505060405180910390f35b34801561036857600080fd5b50610371610b9f565b604051808273ffffffffffffffffffffffffffffffffffffffff1673ffffffffffffffffffffffffffffffffffffffff16815260200191505060405180910390f35b3480156103bf57600080fd5b506103f4600480360381019080803573ffffffffffffffffffffffffffffffffffffffff169060200190929190505050610bc5565b604051808215151515815260200191505060405180910390f35b34801561041a57600080fd5b50610423610be5565b005b60045481565b60036020528060005260406000206000915054906101000a900473ffffffffffffffffffffffffffffffffffffffff1681565b600560009054906101000a900460ff1615151561047a57600080fd5b600073ffffffffffffffffffffffffffffffffffffffff16600260003373ffffffffffffffffffffffffffffffffffffffff1673ffffffffffffffffffffffffffffffffffffffff16815260200190815260200160002060000160009054906101000a900473ffffffffffffffffffffffffffffffffffffffff1673ffffffffffffffffffffffffffffffffffffffff1614151561051757600080fd5b670de0b6b3a76400003414151561052d57600080fd5b3360036000600454815260200190815260200160002060006101000a81548173ffffffffffffffffffffffffffffffffffffffff021916908373ffffffffffffffffffffffffffffffffffffffff1602179055506060604051908101604052803373ffffffffffffffffffffffffffffffffffffffff1681526020018281526020016000815250600260003373ffffffffffffffffffffffffffffffffffffffff1673ffffffffffffffffffffffffffffffffffffffff16815260200190815260200160002060008201518160000160006101000a81548173ffffffffffffffffffffffffffffffffffffffff021916908373ffffffffffffffffffffffffffffffffffffffff1602179055506020820151816001019080519060200190610656929190610f7a565b50604082015181600201559050506004600081548092919060010191905055503373ffffffffffffffffffffffffffffffffffffffff167fe8d5d4078596009f9adac6ccd90957a737e5c311219b58af2e6b6fb2d8c8c8a18260006040518080602001838152602001828103825284818151815260200191508051906020019080838360005b838110156106f75780820151818401526020810190506106dc565b50505050905090810190601f1680156107245780820380516001836020036101000a031916815260200191505b50935050505060405180910390a250565b600560009054906101000a900460ff1615151561075157600080fd5b600160003373ffffffffffffffffffffffffffffffffffffffff1673ffffffffffffffffffffffffffffffffffffffff16815260200190815260200160002060009054906101000a900460ff161515156107aa57600080fd5b80600073ffffffffffffffffffffffffffffffffffffffff16600260008373ffffffffffffffffffffffffffffffffffffffff1673ffffffffffffffffffffffffffffffffffffffff16815260200190815260200160002060000160009054906101000a900473ffffffffffffffffffffffffffffffffffffffff1673ffffffffffffffffffffffffffffffffffffffff161415151561084957600080fd5b60018060003373ffffffffffffffffffffffffffffffffffffffff1673ffffffffffffffffffffffffffffffffffffffff16815260200190815260200160002060006101000a81548160ff021916908315150217905550600260008373ffffffffffffffffffffffffffffffffffffffff1673ffffffffffffffffffffffffffffffffffffffff168152602001908152602001600020600201600081548092919060010191905055508173ffffffffffffffffffffffffffffffffffffffff167fdba61923b7cc0e66409c7a34a3a8800e40b0d4cd961b2ad2f9365510d52e8a58600260008573ffffffffffffffffffffffffffffffffffffffff1673ffffffffffffffffffffffffffffffffffffffff168152602001908152602001600020600101600260008673ffffffffffffffffffffffffffffffffffffffff1673ffffffffffffffffffffffffffffffffffffffff168152602001908152602001600020600201543360405180806020018481526020018373ffffffffffffffffffffffffffffffffffffffff1673ffffffffffffffffffffffffffffffffffffffff168152602001828103825285818154600181600116156101000203166002900481526020019150805460018160011615610100020316600290048015610a715780601f10610a4657610100808354040283529160200191610a71565b820191906000526020600020905b815481529060010190602001808311610a5457829003601f168201915b505094505050505060405180910390a25050565b600560009054906101000a900460ff1681565b60026020528060005260406000206000915090508060000160009054906101000a900473ffffffffffffffffffffffffffffffffffffffff1690806001018054600181600116156101000203166002900480601f016020809104026020016040519081016040528092919081815260200182805460018160011615610100020316600290048015610b6a5780601f10610b3f57610100808354040283529160200191610b6a565b820191906000526020600020905b815481529060010190602001808311610b4d57829003601f168201915b5050505050908060020154905083565b6000809054906101000a900473ffffffffffffffffffffffffffffffffffffffff1681565b600560019054906101000a900473ffffffffffffffffffffffffffffffffffffffff1681565b60016020528060005260406000206000915054906101000a900460ff1681565b60606000806000806000809054906101000a900473ffffffffffffffffffffffffffffffffffffffff1673ffffffffffffffffffffffffffffffffffffffff163373ffffffffffffffffffffffffffffffffffffffff16141515610c4857600080fd5b6020604051908101604052806000815250945060009350600092505b600454831015610e0a576003600084815260200190815260200160002060009054906101000a900473ffffffffffffffffffffffffffffffffffffffff169150600260008373ffffffffffffffffffffffffffffffffffffffff1673ffffffffffffffffffffffffffffffffffffffff16815260200190815260200160002090508381600201541115610dfd5780600201549350806001018054600181600116156101000203166002900480601f016020809104026020016040519081016040528092919081815260200182805460018160011615610100020316600290048015610d905780601f10610d6557610100808354040283529160200191610d90565b820191906000526020600020905b815481529060010190602001808311610d7357829003601f168201915b505050505094508060000160009054906101000a900473ffffffffffffffffffffffffffffffffffffffff16600560016101000a81548173ffffffffffffffffffffffffffffffffffffffff021916908373ffffffffffffffffffffffffffffffffffffffff1602179055505b8280600101935050610c64565b600560019054906101000a900473ffffffffffffffffffffffffffffffffffffffff1673ffffffffffffffffffffffffffffffffffffffff166108fc670de0b6b3a76400009081150290604051600060405180830381858888f19350505050158015610e7a573d6000803e3d6000fd5b506001600560006101000a81548160ff021916908315150217905550600560019054906101000a900473ffffffffffffffffffffffffffffffffffffffff1673ffffffffffffffffffffffffffffffffffffffff167f4cd20412fd022c94191283a50366bf9b900700d9431b5b87ff12fcd867c2c76a86866040518080602001838152602001828103825284818151815260200191508051906020019080838360005b83811015610f38578082015181840152602081019050610f1d565b50505050905090810190601f168015610f655780820380516001836020036101000a031916815260200191505b50935050505060405180910390a25050505050565b828054600181600116156101000203166002900490600052602060002090601f016020900481019282601f10610fbb57805160ff1916838001178555610fe9565b82800160010185558215610fe9579182015b82811115610fe8578251825591602001919060010190610fcd565b5b509050610ff69190610ffa565b5090565b61101c91905b80821115611018576000816000905550600101611000565b5090565b905600a165627a7a723058204f271b4c2e20773e31d003c8888162724362296f50c57254669e6b42c1a87f830029",
  "source": "pragma solidity ^0.4.20;\r\n\r\ncontract Election {\r\n    //Aday modeli\r\n    struct Candidate {\r\n        address id;\r\n        string name;\r\n        uint voteCount;\r\n    }\r\n\r\n    //Kontrat sahibinin adresi\r\n    address public owner;\r\n\r\n    //Seçmenler\r\n    mapping(address => bool) public voters;\r\n\r\n    //Adaylar\r\n    mapping(address => Candidate) public candidates;\r\n    mapping(uint => address) public candidateAddress;\r\n    \r\n    //Aday sayısı\r\n    uint public candidatesCount;\r\n\r\n    //Seçim bitti\r\n    bool public isFinished;\r\n\r\n    //Seçimi kazanan adayın adresi\r\n    address public winnerCandidate;\r\n\r\n    //Oy kullanıldığında tetiklenir\r\n    event votedEvent(\r\n        address indexed _candidateId,\r\n        string _candidateName,\r\n        uint _candidateVoteCount,\r\n        address _woterId\r\n    );\r\n\r\n    //Aday olunduğunda tetiklenir\r\n    event registeredCandidateEvent(\r\n        address indexed _candidateId,\r\n        string _candidateName,\r\n        uint _candidateVoteCount\r\n    );\r\n\r\n    //Kazanan belli olduğunda tetiklenir\r\n    event winnerEvent(\r\n        address indexed _candidateId,\r\n         string _candidateName,\r\n         uint _candidateVoteCount\r\n    );\r\n\r\n    //Kontrat sahibinin olması zorunlu\r\n    modifier onlyOwner(){\r\n        require(msg.sender == owner);\r\n        _;\r\n    }\r\n\r\n    //Seçmenin bir kez oy kullanabilmesi kontrolü\r\n    modifier onlyFirstVote() {\r\n        require(!voters[msg.sender]);\r\n        _;\r\n    }\r\n\r\n    //Adayın bir kez aday olabilmesi kontrolü\r\n    modifier onlyFirstCanditate(){\r\n        require(candidates[msg.sender].id == address(0));\r\n        _;\r\n    }\r\n\r\n    //Kullanılacak oy için aday kontrolü\r\n    modifier validCanditate(address _candidateAddress){\r\n        require(candidates[_candidateAddress].id != address(0));\r\n        _;\r\n    }\r\n\r\n    //Seçimin sona erip ermediği kontrolü\r\n    modifier validFinishElection(){\r\n        require(!isFinished);\r\n        _;\r\n    }\r\n\r\n    constructor() public { \r\n        owner = msg.sender;\r\n    }\r\n\r\n    function becomeCandidate(string _name) public payable validFinishElection onlyFirstCanditate {\r\n\r\n        require(msg.value == 1000000000000000000);\r\n\r\n        candidateAddress[candidatesCount] = msg.sender;\r\n        candidates[msg.sender] = Candidate(msg.sender, _name, 0);\r\n\r\n        candidatesCount++;\r\n\r\n        emit registeredCandidateEvent(msg.sender, _name, 0);\r\n    }\r\n\r\n    function vote(address _candidateAddress) public validFinishElection onlyFirstVote validCanditate(_candidateAddress) {\r\n        voters[msg.sender] = true;\r\n\r\n        candidates[_candidateAddress].voteCount ++;\r\n\r\n        emit votedEvent(_candidateAddress, candidates[_candidateAddress].name, candidates[_candidateAddress].voteCount, msg.sender);\r\n    }\r\n\r\n    function finish() public onlyOwner {\r\n        \r\n        string memory winnerName = \"\";\r\n        uint winnerVoteCount = 0;\r\n\r\n        for (uint i = 0; i < candidatesCount; i++) {\r\n            address addr = candidateAddress[i];\r\n            Candidate storage candidate = candidates[addr];\r\n\r\n            if(candidate.voteCount > winnerVoteCount) {\r\n                winnerVoteCount = candidate.voteCount;\r\n                winnerName = candidate.name;\r\n                winnerCandidate = candidate.id;\r\n            }\r\n        }\r\n\r\n        winnerCandidate.transfer(1000000000000000000);\r\n\r\n        isFinished = true;\r\n\r\n        emit winnerEvent(winnerCandidate, winnerName, winnerVoteCount);\r\n    }\r\n}",
  "sourcePath": "C:\\Projects\\dapp-election\\contracts\\Election.sol",
  "compiler": {
    "name": "solc",
    "version": "0.4.24+commit.e67f0147.Emscripten.clang"
  },
  "schemaVersion": "2.0.0",
  "updatedAt": "2018-06-16T21:59:50.382Z"
}